{
  "_format": "hh-sol-artifact-1",
  "contractName": "Raffle",
  "sourceName": "contracts/Raffle.sol",
  "abi": [
    {
      "inputs": [
        {
          "internalType": "uint256",
          "name": "_entranceFee",
          "type": "uint256"
        },
        {
          "internalType": "address",
          "name": "_vrfCoordinatorV2",
          "type": "address"
        },
        {
          "internalType": "bytes32",
          "name": "_gaslane",
          "type": "bytes32"
        },
        {
          "internalType": "uint64",
          "name": "_subscribtionId",
          "type": "uint64"
        },
        {
          "internalType": "uint32",
          "name": "_callbackGasLimit",
          "type": "uint32"
        },
        {
          "internalType": "uint256",
          "name": "_interval",
          "type": "uint256"
        }
      ],
      "stateMutability": "nonpayable",
      "type": "constructor"
    },
    {
      "inputs": [
        {
          "internalType": "address",
          "name": "have",
          "type": "address"
        },
        {
          "internalType": "address",
          "name": "want",
          "type": "address"
        }
      ],
      "name": "OnlyCoordinatorCanFulfill",
      "type": "error"
    },
    {
      "inputs": [],
      "name": "OnlySimulatedBackend",
      "type": "error"
    },
    {
      "inputs": [],
      "name": "Raffle__NotEnoughETHEnter",
      "type": "error"
    },
    {
      "inputs": [],
      "name": "Raffle__NotOpen",
      "type": "error"
    },
    {
      "inputs": [],
      "name": "Raffle__TransferFailed",
      "type": "error"
    },
    {
      "inputs": [
        {
          "internalType": "uint256",
          "name": "currentBalance",
          "type": "uint256"
        },
        {
          "internalType": "uint256",
          "name": "numPlayers",
          "type": "uint256"
        },
        {
          "internalType": "uint256",
          "name": "raffleState",
          "type": "uint256"
        }
      ],
      "name": "Raffle__UpkeepNotNeeded",
      "type": "error"
    },
    {
      "anonymous": false,
      "inputs": [
        {
          "indexed": true,
          "internalType": "address",
          "name": "player",
          "type": "address"
        }
      ],
      "name": "RaffleEnter",
      "type": "event"
    },
    {
      "anonymous": false,
      "inputs": [
        {
          "indexed": true,
          "internalType": "uint256",
          "name": "requestId",
          "type": "uint256"
        }
      ],
      "name": "RequestedRandomWinner",
      "type": "event"
    },
    {
      "anonymous": false,
      "inputs": [
        {
          "indexed": true,
          "internalType": "address",
          "name": "winner",
          "type": "address"
        }
      ],
      "name": "WinnerPicked",
      "type": "event"
    },
    {
      "inputs": [
        {
          "internalType": "bytes",
          "name": "",
          "type": "bytes"
        }
      ],
      "name": "checkUpkeep",
      "outputs": [
        {
          "internalType": "bool",
          "name": "upkeepNeeded",
          "type": "bool"
        },
        {
          "internalType": "bytes",
          "name": "",
          "type": "bytes"
        }
      ],
      "stateMutability": "view",
      "type": "function"
    },
    {
      "inputs": [],
      "name": "enterRaffle",
      "outputs": [],
      "stateMutability": "payable",
      "type": "function"
    },
    {
      "inputs": [],
      "name": "getEntranceFee",
      "outputs": [
        {
          "internalType": "uint256",
          "name": "",
          "type": "uint256"
        }
      ],
      "stateMutability": "view",
      "type": "function"
    },
    {
      "inputs": [],
      "name": "getLastTimeStamp",
      "outputs": [
        {
          "internalType": "uint256",
          "name": "",
          "type": "uint256"
        }
      ],
      "stateMutability": "view",
      "type": "function"
    },
    {
      "inputs": [],
      "name": "getNumWords",
      "outputs": [
        {
          "internalType": "uint32",
          "name": "",
          "type": "uint32"
        }
      ],
      "stateMutability": "pure",
      "type": "function"
    },
    {
      "inputs": [],
      "name": "getNumberOfPlayers",
      "outputs": [
        {
          "internalType": "uint256",
          "name": "",
          "type": "uint256"
        }
      ],
      "stateMutability": "view",
      "type": "function"
    },
    {
      "inputs": [
        {
          "internalType": "uint256",
          "name": "_index",
          "type": "uint256"
        }
      ],
      "name": "getPlayer",
      "outputs": [
        {
          "internalType": "address",
          "name": "",
          "type": "address"
        }
      ],
      "stateMutability": "view",
      "type": "function"
    },
    {
      "inputs": [],
      "name": "getRaffleState",
      "outputs": [
        {
          "internalType": "enum Raffle.RaffleState",
          "name": "",
          "type": "uint8"
        }
      ],
      "stateMutability": "view",
      "type": "function"
    },
    {
      "inputs": [],
      "name": "getRecentWinner",
      "outputs": [
        {
          "internalType": "address",
          "name": "",
          "type": "address"
        }
      ],
      "stateMutability": "view",
      "type": "function"
    },
    {
      "inputs": [],
      "name": "getRequestConfirmations",
      "outputs": [
        {
          "internalType": "uint256",
          "name": "",
          "type": "uint256"
        }
      ],
      "stateMutability": "pure",
      "type": "function"
    },
    {
      "inputs": [
        {
          "internalType": "bytes",
          "name": "",
          "type": "bytes"
        }
      ],
      "name": "performUpkeep",
      "outputs": [],
      "stateMutability": "nonpayable",
      "type": "function"
    },
    {
      "inputs": [
        {
          "internalType": "uint256",
          "name": "requestId",
          "type": "uint256"
        },
        {
          "internalType": "uint256[]",
          "name": "randomWords",
          "type": "uint256[]"
        }
      ],
      "name": "rawFulfillRandomWords",
      "outputs": [],
      "stateMutability": "nonpayable",
      "type": "function"
    }
  ],
  "bytecode": "0x6101606040523480156200001257600080fd5b50604051620017a1380380620017a1833981810160405281019062000038919062000294565b848073ffffffffffffffffffffffffffffffffffffffff1660808173ffffffffffffffffffffffffffffffffffffffff1681525050508560c081815250508473ffffffffffffffffffffffffffffffffffffffff1660a08173ffffffffffffffffffffffffffffffffffffffff16815250508360e081815250508267ffffffffffffffff166101008167ffffffffffffffff16815250508163ffffffff166101208163ffffffff16815250506000600160146101000a81548160ff021916908360018111156200010d576200010c62000330565b5b0217905550426002819055508061014081815250505050505050506200035f565b600080fd5b6000819050919050565b620001488162000133565b81146200015457600080fd5b50565b60008151905062000168816200013d565b92915050565b600073ffffffffffffffffffffffffffffffffffffffff82169050919050565b60006200019b826200016e565b9050919050565b620001ad816200018e565b8114620001b957600080fd5b50565b600081519050620001cd81620001a2565b92915050565b6000819050919050565b620001e881620001d3565b8114620001f457600080fd5b50565b6000815190506200020881620001dd565b92915050565b600067ffffffffffffffff82169050919050565b6200022d816200020e565b81146200023957600080fd5b50565b6000815190506200024d8162000222565b92915050565b600063ffffffff82169050919050565b6200026e8162000253565b81146200027a57600080fd5b50565b6000815190506200028e8162000263565b92915050565b60008060008060008060c08789031215620002b457620002b36200012e565b5b6000620002c489828a0162000157565b9650506020620002d789828a01620001bc565b9550506040620002ea89828a01620001f7565b9450506060620002fd89828a016200023c565b93505060806200031089828a016200027d565b92505060a06200032389828a0162000157565b9150509295509295509295565b7f4e487b7100000000000000000000000000000000000000000000000000000000600052602160045260246000fd5b60805160a05160c05160e0516101005161012051610140516113d9620003c860003960006107560152600061065501526000610632015260006106110152600081816102b401526103b1015260006105d50152600081816102f1015261034501526113d96000f3fe6080604052600436106100a75760003560e01c806353a2c19a1161006457806353a2c19a146101895780635f1b0fd8146101b45780636e04ff0d146101df578063c1c244e81461021d578063e55ae4e814610248578063fd6673f514610285576100a7565b806309bc33a7146100ac578063115cbaf5146100d75780631fe543e3146101025780632cfcc5391461012b5780634585e33b14610135578063473f1ddc1461015e575b600080fd5b3480156100b857600080fd5b506100c16102b0565b6040516100ce9190610b48565b60405180910390f35b3480156100e357600080fd5b506100ec6102d8565b6040516100f99190610bda565b60405180910390f35b34801561010e57600080fd5b5061012960048036038101906101249190610d8e565b6102ef565b005b6101336103af565b005b34801561014157600080fd5b5061015c60048036038101906101579190610e45565b61051e565b005b34801561016a57600080fd5b5061017361070e565b6040516101809190610ed3565b60405180910390f35b34801561019557600080fd5b5061019e610738565b6040516101ab9190610f0d565b60405180910390f35b3480156101c057600080fd5b506101c9610741565b6040516101d69190610b48565b60405180910390f35b3480156101eb57600080fd5b5061020660048036038101906102019190610fdd565b61074e565b6040516102149291906110c0565b60405180910390f35b34801561022957600080fd5b506102326107fa565b60405161023f9190610b48565b60405180910390f35b34801561025457600080fd5b5061026f600480360381019061026a91906110f0565b610804565b60405161027c9190610ed3565b60405180910390f35b34801561029157600080fd5b5061029a61084b565b6040516102a79190610b48565b60405180910390f35b60007f0000000000000000000000000000000000000000000000000000000000000000905090565b6000600160149054906101000a900460ff16905090565b7f000000000000000000000000000000000000000000000000000000000000000073ffffffffffffffffffffffffffffffffffffffff163373ffffffffffffffffffffffffffffffffffffffff16146103a157337f00000000000000000000000000000000000000000000000000000000000000006040517f1cf993f400000000000000000000000000000000000000000000000000000000815260040161039892919061111d565b60405180910390fd5b6103ab8282610857565b5050565b7f0000000000000000000000000000000000000000000000000000000000000000341015610409576040517f022cd66e00000000000000000000000000000000000000000000000000000000815260040160405180910390fd5b6000600181111561041d5761041c610b63565b5b600160149054906101000a900460ff16600181111561043f5761043e610b63565b5b14610476576040517f1425571c00000000000000000000000000000000000000000000000000000000815260040160405180910390fd5b6000339080600181540180825580915050600190039060005260206000200160009091909190916101000a81548173ffffffffffffffffffffffffffffffffffffffff021916908373ffffffffffffffffffffffffffffffffffffffff1602179055503373ffffffffffffffffffffffffffffffffffffffff167f0805e1d667bddb8a95f0f09880cf94f403fb596ce79928d9f29b74203ba284d460405160405180910390a2565b60006105386040518060200160405280600081525061074e565b509050806105a75747600080549050600160149054906101000a900460ff16600181111561056957610568610b63565b5b6040517f584327aa00000000000000000000000000000000000000000000000000000000815260040161059e93929190611146565b60405180910390fd5b60018060146101000a81548160ff021916908360018111156105cc576105cb610b63565b5b021790555060007f000000000000000000000000000000000000000000000000000000000000000073ffffffffffffffffffffffffffffffffffffffff16635d3b1d307f00000000000000000000000000000000000000000000000000000000000000007f000000000000000000000000000000000000000000000000000000000000000060037f000000000000000000000000000000000000000000000000000000000000000060016040518663ffffffff1660e01b81526004016106969594939291906111d6565b6020604051808303816000875af11580156106b5573d6000803e3d6000fd5b505050506040513d601f19601f820116820180604052508101906106d9919061123e565b9050807f1fe6c803a34f3487c47f1c0c9d1723f1d731ab15ae39e407f7aaa1396d4b0bea60405160405180910390a250505050565b6000600160009054906101000a900473ffffffffffffffffffffffffffffffffffffffff16905090565b60006001905090565b6000600361ffff16905090565b6000606060007f000000000000000000000000000000000000000000000000000000000000000060025442610783919061129a565b1190506000806000805490501190506000804711905060008060018111156107ae576107ad610b63565b5b600160149054906101000a900460ff1660018111156107d0576107cf610b63565b5b1490508380156107dd5750815b80156107e65750825b80156107ef5750805b955050505050915091565b6000600254905090565b6000808281548110610819576108186112ce565b5b9060005260206000200160009054906101000a900473ffffffffffffffffffffffffffffffffffffffff169050919050565b60008080549050905090565b6000808054905082600081518110610872576108716112ce565b5b6020026020010151610884919061132c565b9050600080828154811061089b5761089a6112ce565b5b9060005260206000200160009054906101000a900473ffffffffffffffffffffffffffffffffffffffff16905080600160006101000a81548173ffffffffffffffffffffffffffffffffffffffff021916908373ffffffffffffffffffffffffffffffffffffffff1602179055506000600160146101000a81548160ff0219169083600181111561092f5761092e610b63565b5b0217905550600067ffffffffffffffff81111561094f5761094e610c4b565b5b60405190808252806020026020018201604052801561097d5781602001602082028036833780820191505090505b5060009080519060200190610993929190610a88565b504260028190555060008173ffffffffffffffffffffffffffffffffffffffff16476040516109c19061138e565b60006040518083038185875af1925050503d80600081146109fe576040519150601f19603f3d011682016040523d82523d6000602084013e610a03565b606091505b5050905080610a3e576040517fa1d04b3900000000000000000000000000000000000000000000000000000000815260040160405180910390fd5b8173ffffffffffffffffffffffffffffffffffffffff167f5b690ec4a06fe979403046eaeea5b3ce38524683c3001f662c8b5a829632f7df60405160405180910390a25050505050565b828054828255906000526020600020908101928215610b01579160200282015b82811115610b005782518260006101000a81548173ffffffffffffffffffffffffffffffffffffffff021916908373ffffffffffffffffffffffffffffffffffffffff16021790555091602001919060010190610aa8565b5b509050610b0e9190610b12565b5090565b5b80821115610b2b576000816000905550600101610b13565b5090565b6000819050919050565b610b4281610b2f565b82525050565b6000602082019050610b5d6000830184610b39565b92915050565b7f4e487b7100000000000000000000000000000000000000000000000000000000600052602160045260246000fd5b60028110610ba357610ba2610b63565b5b50565b6000819050610bb482610b92565b919050565b6000610bc482610ba6565b9050919050565b610bd481610bb9565b82525050565b6000602082019050610bef6000830184610bcb565b92915050565b6000604051905090565b600080fd5b600080fd5b610c1281610b2f565b8114610c1d57600080fd5b50565b600081359050610c2f81610c09565b92915050565b600080fd5b6000601f19601f8301169050919050565b7f4e487b7100000000000000000000000000000000000000000000000000000000600052604160045260246000fd5b610c8382610c3a565b810181811067ffffffffffffffff82111715610ca257610ca1610c4b565b5b80604052505050565b6000610cb5610bf5565b9050610cc18282610c7a565b919050565b600067ffffffffffffffff821115610ce157610ce0610c4b565b5b602082029050602081019050919050565b600080fd5b6000610d0a610d0584610cc6565b610cab565b90508083825260208201905060208402830185811115610d2d57610d2c610cf2565b5b835b81811015610d565780610d428882610c20565b845260208401935050602081019050610d2f565b5050509392505050565b600082601f830112610d7557610d74610c35565b5b8135610d85848260208601610cf7565b91505092915050565b60008060408385031215610da557610da4610bff565b5b6000610db385828601610c20565b925050602083013567ffffffffffffffff811115610dd457610dd3610c04565b5b610de085828601610d60565b9150509250929050565b600080fd5b60008083601f840112610e0557610e04610c35565b5b8235905067ffffffffffffffff811115610e2257610e21610dea565b5b602083019150836001820283011115610e3e57610e3d610cf2565b5b9250929050565b60008060208385031215610e5c57610e5b610bff565b5b600083013567ffffffffffffffff811115610e7a57610e79610c04565b5b610e8685828601610def565b92509250509250929050565b600073ffffffffffffffffffffffffffffffffffffffff82169050919050565b6000610ebd82610e92565b9050919050565b610ecd81610eb2565b82525050565b6000602082019050610ee86000830184610ec4565b92915050565b600063ffffffff82169050919050565b610f0781610eee565b82525050565b6000602082019050610f226000830184610efe565b92915050565b600080fd5b600067ffffffffffffffff821115610f4857610f47610c4b565b5b610f5182610c3a565b9050602081019050919050565b82818337600083830152505050565b6000610f80610f7b84610f2d565b610cab565b905082815260208101848484011115610f9c57610f9b610f28565b5b610fa7848285610f5e565b509392505050565b600082601f830112610fc457610fc3610c35565b5b8135610fd4848260208601610f6d565b91505092915050565b600060208284031215610ff357610ff2610bff565b5b600082013567ffffffffffffffff81111561101157611010610c04565b5b61101d84828501610faf565b91505092915050565b60008115159050919050565b61103b81611026565b82525050565b600081519050919050565b600082825260208201905092915050565b60005b8381101561107b578082015181840152602081019050611060565b60008484015250505050565b600061109282611041565b61109c818561104c565b93506110ac81856020860161105d565b6110b581610c3a565b840191505092915050565b60006040820190506110d56000830185611032565b81810360208301526110e78184611087565b90509392505050565b60006020828403121561110657611105610bff565b5b600061111484828501610c20565b91505092915050565b60006040820190506111326000830185610ec4565b61113f6020830184610ec4565b9392505050565b600060608201905061115b6000830186610b39565b6111686020830185610b39565b6111756040830184610b39565b949350505050565b6000819050919050565b6111908161117d565b82525050565b600067ffffffffffffffff82169050919050565b6111b381611196565b82525050565b600061ffff82169050919050565b6111d0816111b9565b82525050565b600060a0820190506111eb6000830188611187565b6111f860208301876111aa565b61120560408301866111c7565b6112126060830185610efe565b61121f6080830184610efe565b9695505050505050565b60008151905061123881610c09565b92915050565b60006020828403121561125457611253610bff565b5b600061126284828501611229565b91505092915050565b7f4e487b7100000000000000000000000000000000000000000000000000000000600052601160045260246000fd5b60006112a582610b2f565b91506112b083610b2f565b92508282039050818111156112c8576112c761126b565b5b92915050565b7f4e487b7100000000000000000000000000000000000000000000000000000000600052603260045260246000fd5b7f4e487b7100000000000000000000000000000000000000000000000000000000600052601260045260246000fd5b600061133782610b2f565b915061134283610b2f565b925082611352576113516112fd565b5b828206905092915050565b600081905092915050565b50565b600061137860008361135d565b915061138382611368565b600082019050919050565b60006113998261136b565b915081905091905056fea264697066735822122013b6f2783a9f63401152e096444838feb8ca9ae815540e35a95da19a9af0c1b964736f6c63430008120033",
  "linkReferences": {},
  "deployedLinkReferences": {}
}