{
  "address": "0xc9CDB07287DB8b72e439dC7600afA9D6eC0F58a9",
  "abi": [
    {
      "inputs": [
        {
          "internalType": "address",
          "name": "_vrfCoordinatorV2",
          "type": "address"
        },
        {
          "internalType": "uint256",
          "name": "_entranceFee",
          "type": "uint256"
        },
        {
          "internalType": "bytes32",
          "name": "_gaslane",
          "type": "bytes32"
        },
        {
          "internalType": "uint64",
          "name": "_subscribtionId",
          "type": "uint64"
        },
        {
          "internalType": "uint32",
          "name": "_callbackGasLimit",
          "type": "uint32"
        },
        {
          "internalType": "uint256",
          "name": "_interval",
          "type": "uint256"
        }
      ],
      "stateMutability": "nonpayable",
      "type": "constructor"
    },
    {
      "inputs": [
        {
          "internalType": "address",
          "name": "have",
          "type": "address"
        },
        {
          "internalType": "address",
          "name": "want",
          "type": "address"
        }
      ],
      "name": "OnlyCoordinatorCanFulfill",
      "type": "error"
    },
    {
      "inputs": [],
      "name": "OnlySimulatedBackend",
      "type": "error"
    },
    {
      "inputs": [],
      "name": "Raffle__NotEnoughETHEnter",
      "type": "error"
    },
    {
      "inputs": [],
      "name": "Raffle__NotOpen",
      "type": "error"
    },
    {
      "inputs": [],
      "name": "Raffle__TransferFailed",
      "type": "error"
    },
    {
      "inputs": [
        {
          "internalType": "uint256",
          "name": "currentBalance",
          "type": "uint256"
        },
        {
          "internalType": "uint256",
          "name": "numPlayers",
          "type": "uint256"
        },
        {
          "internalType": "uint256",
          "name": "raffleState",
          "type": "uint256"
        }
      ],
      "name": "Raffle__UpkeepNotNeeded",
      "type": "error"
    },
    {
      "anonymous": false,
      "inputs": [
        {
          "indexed": true,
          "internalType": "address",
          "name": "player",
          "type": "address"
        }
      ],
      "name": "RaffleEnter",
      "type": "event"
    },
    {
      "anonymous": false,
      "inputs": [
        {
          "indexed": true,
          "internalType": "uint256",
          "name": "requestId",
          "type": "uint256"
        }
      ],
      "name": "RequestedRandomWinner",
      "type": "event"
    },
    {
      "anonymous": false,
      "inputs": [
        {
          "indexed": true,
          "internalType": "address",
          "name": "winner",
          "type": "address"
        }
      ],
      "name": "WinnerPicked",
      "type": "event"
    },
    {
      "inputs": [
        {
          "internalType": "bytes",
          "name": "",
          "type": "bytes"
        }
      ],
      "name": "checkUpkeep",
      "outputs": [
        {
          "internalType": "bool",
          "name": "upkeepNeeded",
          "type": "bool"
        },
        {
          "internalType": "bytes",
          "name": "",
          "type": "bytes"
        }
      ],
      "stateMutability": "view",
      "type": "function"
    },
    {
      "inputs": [],
      "name": "enterRaffle",
      "outputs": [],
      "stateMutability": "payable",
      "type": "function"
    },
    {
      "inputs": [],
      "name": "getCallbackGasLimit",
      "outputs": [
        {
          "internalType": "uint32",
          "name": "",
          "type": "uint32"
        }
      ],
      "stateMutability": "view",
      "type": "function"
    },
    {
      "inputs": [],
      "name": "getEntranceFee",
      "outputs": [
        {
          "internalType": "uint256",
          "name": "",
          "type": "uint256"
        }
      ],
      "stateMutability": "view",
      "type": "function"
    },
    {
      "inputs": [],
      "name": "getGasLane",
      "outputs": [
        {
          "internalType": "bytes32",
          "name": "",
          "type": "bytes32"
        }
      ],
      "stateMutability": "view",
      "type": "function"
    },
    {
      "inputs": [],
      "name": "getInterval",
      "outputs": [
        {
          "internalType": "uint256",
          "name": "",
          "type": "uint256"
        }
      ],
      "stateMutability": "view",
      "type": "function"
    },
    {
      "inputs": [],
      "name": "getLastTimeStamp",
      "outputs": [
        {
          "internalType": "uint256",
          "name": "",
          "type": "uint256"
        }
      ],
      "stateMutability": "view",
      "type": "function"
    },
    {
      "inputs": [],
      "name": "getNumWords",
      "outputs": [
        {
          "internalType": "uint32",
          "name": "",
          "type": "uint32"
        }
      ],
      "stateMutability": "pure",
      "type": "function"
    },
    {
      "inputs": [],
      "name": "getNumberOfPlayers",
      "outputs": [
        {
          "internalType": "uint256",
          "name": "",
          "type": "uint256"
        }
      ],
      "stateMutability": "view",
      "type": "function"
    },
    {
      "inputs": [
        {
          "internalType": "uint256",
          "name": "_index",
          "type": "uint256"
        }
      ],
      "name": "getPlayer",
      "outputs": [
        {
          "internalType": "address",
          "name": "",
          "type": "address"
        }
      ],
      "stateMutability": "view",
      "type": "function"
    },
    {
      "inputs": [],
      "name": "getRaffleState",
      "outputs": [
        {
          "internalType": "enum Raffle.RaffleState",
          "name": "",
          "type": "uint8"
        }
      ],
      "stateMutability": "view",
      "type": "function"
    },
    {
      "inputs": [],
      "name": "getRecentWinner",
      "outputs": [
        {
          "internalType": "address",
          "name": "",
          "type": "address"
        }
      ],
      "stateMutability": "view",
      "type": "function"
    },
    {
      "inputs": [],
      "name": "getRequestConfirmations",
      "outputs": [
        {
          "internalType": "uint256",
          "name": "",
          "type": "uint256"
        }
      ],
      "stateMutability": "pure",
      "type": "function"
    },
    {
      "inputs": [],
      "name": "getSubId",
      "outputs": [
        {
          "internalType": "uint64",
          "name": "",
          "type": "uint64"
        }
      ],
      "stateMutability": "view",
      "type": "function"
    },
    {
      "inputs": [],
      "name": "getVRFCoordinator",
      "outputs": [
        {
          "internalType": "contract VRFCoordinatorV2Interface",
          "name": "",
          "type": "address"
        }
      ],
      "stateMutability": "view",
      "type": "function"
    },
    {
      "inputs": [
        {
          "internalType": "bytes",
          "name": "",
          "type": "bytes"
        }
      ],
      "name": "performUpkeep",
      "outputs": [],
      "stateMutability": "nonpayable",
      "type": "function"
    },
    {
      "inputs": [
        {
          "internalType": "uint256",
          "name": "requestId",
          "type": "uint256"
        },
        {
          "internalType": "uint256[]",
          "name": "randomWords",
          "type": "uint256[]"
        }
      ],
      "name": "rawFulfillRandomWords",
      "outputs": [],
      "stateMutability": "nonpayable",
      "type": "function"
    }
  ],
  "transactionHash": "0xf42bd7765cd4c52221b0ccc39d16804f7adacaca2300b16afc0f972b85173d39",
  "args": [
    "0x8103B0A8A00be2DDC778e6e7eaa21791Cd364625",
    "10000000000000000",
    "0x474e34a077df58807dbe9c96d3c009b23b3c6d0cce433e59bbf5b34f823bc56c",
    "3253",
    "500000",
    "30"
  ],
  "numDeployments": 2,
  "solcInputHash": "f86c984855fc48eb3d45c4d0ba8373e9",
  "bytecode": "0x6101606040523480156200001257600080fd5b5060405162001a6a38038062001a6a833981810160405281019062000038919062000294565b858073ffffffffffffffffffffffffffffffffffffffff1660808173ffffffffffffffffffffffffffffffffffffffff1681525050508460c081815250508573ffffffffffffffffffffffffffffffffffffffff1660a08173ffffffffffffffffffffffffffffffffffffffff16815250508360e081815250508267ffffffffffffffff166101008167ffffffffffffffff16815250508163ffffffff166101208163ffffffff16815250506000600160146101000a81548160ff021916908360018111156200010d576200010c62000330565b5b0217905550426002819055508061014081815250505050505050506200035f565b600080fd5b600073ffffffffffffffffffffffffffffffffffffffff82169050919050565b6000620001608262000133565b9050919050565b620001728162000153565b81146200017e57600080fd5b50565b600081519050620001928162000167565b92915050565b6000819050919050565b620001ad8162000198565b8114620001b957600080fd5b50565b600081519050620001cd81620001a2565b92915050565b6000819050919050565b620001e881620001d3565b8114620001f457600080fd5b50565b6000815190506200020881620001dd565b92915050565b600067ffffffffffffffff82169050919050565b6200022d816200020e565b81146200023957600080fd5b50565b6000815190506200024d8162000222565b92915050565b600063ffffffff82169050919050565b6200026e8162000253565b81146200027a57600080fd5b50565b6000815190506200028e8162000263565b92915050565b60008060008060008060c08789031215620002b457620002b36200012e565b5b6000620002c489828a0162000181565b9650506020620002d789828a01620001bc565b9550506040620002ea89828a01620001f7565b9450506060620002fd89828a016200023c565b93505060806200031089828a016200027d565b92505060a06200032389828a01620001bc565b9150509295509295509295565b7f4e487b7100000000000000000000000000000000000000000000000000000000600052602160045260246000fd5b60805160a05160c05160e05161010051610120516101405161167f620003eb60003960008181610884015261092c01526000818161078301526109ae0152600081816107600152610a1d01526000818161073f015261097c0152600081816103e201526104df015260008181610703015261095401526000818161041f0152610473015261167f6000f3fe6080604052600436106100fe5760003560e01c80636e04ff0d11610095578063c1c244e811610064578063c1c244e8146102f5578063de8be8e714610320578063e55ae4e81461034b578063fbc6ba6f14610388578063fd6673f5146103b3576100fe565b80636e04ff0d1461023657806391ad27b414610274578063a378f3711461029f578063c19dd76b146102ca576100fe565b80634585e33b116100d15780634585e33b1461018c578063473f1ddc146101b557806353a2c19a146101e05780635f1b0fd81461020b576100fe565b806309bc33a714610103578063115cbaf51461012e5780631fe543e3146101595780632cfcc53914610182575b600080fd5b34801561010f57600080fd5b506101186103de565b6040516101259190610d3e565b60405180910390f35b34801561013a57600080fd5b50610143610406565b6040516101509190610dd0565b60405180910390f35b34801561016557600080fd5b50610180600480360381019061017b9190610f84565b61041d565b005b61018a6104dd565b005b34801561019857600080fd5b506101b360048036038101906101ae919061103b565b61064c565b005b3480156101c157600080fd5b506101ca61083c565b6040516101d791906110c9565b60405180910390f35b3480156101ec57600080fd5b506101f5610866565b6040516102029190611103565b60405180910390f35b34801561021757600080fd5b5061022061086f565b60405161022d9190610d3e565b60405180910390f35b34801561024257600080fd5b5061025d600480360381019061025891906111d3565b61087c565b60405161026b9291906112b6565b60405180910390f35b34801561028057600080fd5b50610289610928565b6040516102969190610d3e565b60405180910390f35b3480156102ab57600080fd5b506102b4610950565b6040516102c19190611345565b60405180910390f35b3480156102d657600080fd5b506102df610978565b6040516102ec9190611379565b60405180910390f35b34801561030157600080fd5b5061030a6109a0565b6040516103179190610d3e565b60405180910390f35b34801561032c57600080fd5b506103356109aa565b6040516103429190611103565b60405180910390f35b34801561035757600080fd5b50610372600480360381019061036d9190611394565b6109d2565b60405161037f91906110c9565b60405180910390f35b34801561039457600080fd5b5061039d610a19565b6040516103aa91906113e4565b60405180910390f35b3480156103bf57600080fd5b506103c8610a41565b6040516103d59190610d3e565b60405180910390f35b60007f0000000000000000000000000000000000000000000000000000000000000000905090565b6000600160149054906101000a900460ff16905090565b7f000000000000000000000000000000000000000000000000000000000000000073ffffffffffffffffffffffffffffffffffffffff163373ffffffffffffffffffffffffffffffffffffffff16146104cf57337f00000000000000000000000000000000000000000000000000000000000000006040517f1cf993f40000000000000000000000000000000000000000000000000000000081526004016104c69291906113ff565b60405180910390fd5b6104d98282610a4d565b5050565b7f0000000000000000000000000000000000000000000000000000000000000000341015610537576040517f022cd66e00000000000000000000000000000000000000000000000000000000815260040160405180910390fd5b6000600181111561054b5761054a610d59565b5b600160149054906101000a900460ff16600181111561056d5761056c610d59565b5b146105a4576040517f1425571c00000000000000000000000000000000000000000000000000000000815260040160405180910390fd5b6000339080600181540180825580915050600190039060005260206000200160009091909190916101000a81548173ffffffffffffffffffffffffffffffffffffffff021916908373ffffffffffffffffffffffffffffffffffffffff1602179055503373ffffffffffffffffffffffffffffffffffffffff167f0805e1d667bddb8a95f0f09880cf94f403fb596ce79928d9f29b74203ba284d460405160405180910390a2565b60006106666040518060200160405280600081525061087c565b509050806106d55747600080549050600160149054906101000a900460ff16600181111561069757610696610d59565b5b6040517f584327aa0000000000000000000000000000000000000000000000000000000081526004016106cc93929190611428565b60405180910390fd5b60018060146101000a81548160ff021916908360018111156106fa576106f9610d59565b5b021790555060007f000000000000000000000000000000000000000000000000000000000000000073ffffffffffffffffffffffffffffffffffffffff16635d3b1d307f00000000000000000000000000000000000000000000000000000000000000007f000000000000000000000000000000000000000000000000000000000000000060037f000000000000000000000000000000000000000000000000000000000000000060016040518663ffffffff1660e01b81526004016107c495949392919061147c565b6020604051808303816000875af11580156107e3573d6000803e3d6000fd5b505050506040513d601f19601f8201168201806040525081019061080791906114e4565b9050807f1fe6c803a34f3487c47f1c0c9d1723f1d731ab15ae39e407f7aaa1396d4b0bea60405160405180910390a250505050565b6000600160009054906101000a900473ffffffffffffffffffffffffffffffffffffffff16905090565b60006001905090565b6000600361ffff16905090565b6000606060007f0000000000000000000000000000000000000000000000000000000000000000600254426108b19190611540565b1190506000806000805490501190506000804711905060008060018111156108dc576108db610d59565b5b600160149054906101000a900460ff1660018111156108fe576108fd610d59565b5b14905083801561090b5750815b80156109145750825b801561091d5750805b955050505050915091565b60007f0000000000000000000000000000000000000000000000000000000000000000905090565b60007f0000000000000000000000000000000000000000000000000000000000000000905090565b60007f0000000000000000000000000000000000000000000000000000000000000000905090565b6000600254905090565b60007f0000000000000000000000000000000000000000000000000000000000000000905090565b60008082815481106109e7576109e6611574565b5b9060005260206000200160009054906101000a900473ffffffffffffffffffffffffffffffffffffffff169050919050565b60007f0000000000000000000000000000000000000000000000000000000000000000905090565b60008080549050905090565b6000808054905082600081518110610a6857610a67611574565b5b6020026020010151610a7a91906115d2565b90506000808281548110610a9157610a90611574565b5b9060005260206000200160009054906101000a900473ffffffffffffffffffffffffffffffffffffffff16905080600160006101000a81548173ffffffffffffffffffffffffffffffffffffffff021916908373ffffffffffffffffffffffffffffffffffffffff1602179055506000600160146101000a81548160ff02191690836001811115610b2557610b24610d59565b5b0217905550600067ffffffffffffffff811115610b4557610b44610e41565b5b604051908082528060200260200182016040528015610b735781602001602082028036833780820191505090505b5060009080519060200190610b89929190610c7e565b504260028190555060008173ffffffffffffffffffffffffffffffffffffffff1647604051610bb790611634565b60006040518083038185875af1925050503d8060008114610bf4576040519150601f19603f3d011682016040523d82523d6000602084013e610bf9565b606091505b5050905080610c34576040517fa1d04b3900000000000000000000000000000000000000000000000000000000815260040160405180910390fd5b8173ffffffffffffffffffffffffffffffffffffffff167f5b690ec4a06fe979403046eaeea5b3ce38524683c3001f662c8b5a829632f7df60405160405180910390a25050505050565b828054828255906000526020600020908101928215610cf7579160200282015b82811115610cf65782518260006101000a81548173ffffffffffffffffffffffffffffffffffffffff021916908373ffffffffffffffffffffffffffffffffffffffff16021790555091602001919060010190610c9e565b5b509050610d049190610d08565b5090565b5b80821115610d21576000816000905550600101610d09565b5090565b6000819050919050565b610d3881610d25565b82525050565b6000602082019050610d536000830184610d2f565b92915050565b7f4e487b7100000000000000000000000000000000000000000000000000000000600052602160045260246000fd5b60028110610d9957610d98610d59565b5b50565b6000819050610daa82610d88565b919050565b6000610dba82610d9c565b9050919050565b610dca81610daf565b82525050565b6000602082019050610de56000830184610dc1565b92915050565b6000604051905090565b600080fd5b600080fd5b610e0881610d25565b8114610e1357600080fd5b50565b600081359050610e2581610dff565b92915050565b600080fd5b6000601f19601f8301169050919050565b7f4e487b7100000000000000000000000000000000000000000000000000000000600052604160045260246000fd5b610e7982610e30565b810181811067ffffffffffffffff82111715610e9857610e97610e41565b5b80604052505050565b6000610eab610deb565b9050610eb78282610e70565b919050565b600067ffffffffffffffff821115610ed757610ed6610e41565b5b602082029050602081019050919050565b600080fd5b6000610f00610efb84610ebc565b610ea1565b90508083825260208201905060208402830185811115610f2357610f22610ee8565b5b835b81811015610f4c5780610f388882610e16565b845260208401935050602081019050610f25565b5050509392505050565b600082601f830112610f6b57610f6a610e2b565b5b8135610f7b848260208601610eed565b91505092915050565b60008060408385031215610f9b57610f9a610df5565b5b6000610fa985828601610e16565b925050602083013567ffffffffffffffff811115610fca57610fc9610dfa565b5b610fd685828601610f56565b9150509250929050565b600080fd5b60008083601f840112610ffb57610ffa610e2b565b5b8235905067ffffffffffffffff81111561101857611017610fe0565b5b60208301915083600182028301111561103457611033610ee8565b5b9250929050565b6000806020838503121561105257611051610df5565b5b600083013567ffffffffffffffff8111156110705761106f610dfa565b5b61107c85828601610fe5565b92509250509250929050565b600073ffffffffffffffffffffffffffffffffffffffff82169050919050565b60006110b382611088565b9050919050565b6110c3816110a8565b82525050565b60006020820190506110de60008301846110ba565b92915050565b600063ffffffff82169050919050565b6110fd816110e4565b82525050565b600060208201905061111860008301846110f4565b92915050565b600080fd5b600067ffffffffffffffff82111561113e5761113d610e41565b5b61114782610e30565b9050602081019050919050565b82818337600083830152505050565b600061117661117184611123565b610ea1565b9050828152602081018484840111156111925761119161111e565b5b61119d848285611154565b509392505050565b600082601f8301126111ba576111b9610e2b565b5b81356111ca848260208601611163565b91505092915050565b6000602082840312156111e9576111e8610df5565b5b600082013567ffffffffffffffff81111561120757611206610dfa565b5b611213848285016111a5565b91505092915050565b60008115159050919050565b6112318161121c565b82525050565b600081519050919050565b600082825260208201905092915050565b60005b83811015611271578082015181840152602081019050611256565b60008484015250505050565b600061128882611237565b6112928185611242565b93506112a2818560208601611253565b6112ab81610e30565b840191505092915050565b60006040820190506112cb6000830185611228565b81810360208301526112dd818461127d565b90509392505050565b6000819050919050565b600061130b61130661130184611088565b6112e6565b611088565b9050919050565b600061131d826112f0565b9050919050565b600061132f82611312565b9050919050565b61133f81611324565b82525050565b600060208201905061135a6000830184611336565b92915050565b6000819050919050565b61137381611360565b82525050565b600060208201905061138e600083018461136a565b92915050565b6000602082840312156113aa576113a9610df5565b5b60006113b884828501610e16565b91505092915050565b600067ffffffffffffffff82169050919050565b6113de816113c1565b82525050565b60006020820190506113f960008301846113d5565b92915050565b600060408201905061141460008301856110ba565b61142160208301846110ba565b9392505050565b600060608201905061143d6000830186610d2f565b61144a6020830185610d2f565b6114576040830184610d2f565b949350505050565b600061ffff82169050919050565b6114768161145f565b82525050565b600060a082019050611491600083018861136a565b61149e60208301876113d5565b6114ab604083018661146d565b6114b860608301856110f4565b6114c560808301846110f4565b9695505050505050565b6000815190506114de81610dff565b92915050565b6000602082840312156114fa576114f9610df5565b5b6000611508848285016114cf565b91505092915050565b7f4e487b7100000000000000000000000000000000000000000000000000000000600052601160045260246000fd5b600061154b82610d25565b915061155683610d25565b925082820390508181111561156e5761156d611511565b5b92915050565b7f4e487b7100000000000000000000000000000000000000000000000000000000600052603260045260246000fd5b7f4e487b7100000000000000000000000000000000000000000000000000000000600052601260045260246000fd5b60006115dd82610d25565b91506115e883610d25565b9250826115f8576115f76115a3565b5b828206905092915050565b600081905092915050565b50565b600061161e600083611603565b91506116298261160e565b600082019050919050565b600061163f82611611565b915081905091905056fea2646970667358221220ebc6e7142596598e65e900d34edc1c56d2773080a84250306a98d3f20be578e464736f6c63430008120033",
  "devdoc": {
    "author": "Amir Codder",
    "details": "This implements Chainlink VRFV2 and chainlink keepes (Chainlink Automation)",
    "kind": "dev",
    "methods": {
      "checkUpkeep(bytes)": {
        "details": "This is the function that the chainlink keeper nodes call they look for  the 'upkeepNeeded' to return true The following should be true in order to return true 1. Our time interval should have passed 2. lottery should have atleast 1 player and have some ETH 3. Our Subscribtion funded with LINK 4. The lottery should be in an \"OPEN\" state"
      }
    },
    "title": "A smple raffle contract",
    "version": 1
  },
  "userdoc": {
    "kind": "user",
    "methods": {},
    "notice": "This contract is for creating an untamperable decentralize smart contarct",
    "version": 1
  },
  "storageLayout": {
    "storage": [
      {
        "astId": 1204,
        "contract": "contracts/Raffle.sol:Raffle",
        "label": "s_players",
        "offset": 0,
        "slot": "0",
        "type": "t_array(t_address_payable)dyn_storage"
      },
      {
        "astId": 1218,
        "contract": "contracts/Raffle.sol:Raffle",
        "label": "s_recentWinner",
        "offset": 0,
        "slot": "1",
        "type": "t_address"
      },
      {
        "astId": 1221,
        "contract": "contracts/Raffle.sol:Raffle",
        "label": "s_raffleState",
        "offset": 20,
        "slot": "1",
        "type": "t_enum(RaffleState)1196"
      },
      {
        "astId": 1223,
        "contract": "contracts/Raffle.sol:Raffle",
        "label": "s_lastTimeStamp",
        "offset": 0,
        "slot": "2",
        "type": "t_uint256"
      }
    ],
    "types": {
      "t_address": {
        "encoding": "inplace",
        "label": "address",
        "numberOfBytes": "20"
      },
      "t_address_payable": {
        "encoding": "inplace",
        "label": "address payable",
        "numberOfBytes": "20"
      },
      "t_array(t_address_payable)dyn_storage": {
        "base": "t_address_payable",
        "encoding": "dynamic_array",
        "label": "address payable[]",
        "numberOfBytes": "32"
      },
      "t_enum(RaffleState)1196": {
        "encoding": "inplace",
        "label": "enum Raffle.RaffleState",
        "numberOfBytes": "1"
      },
      "t_uint256": {
        "encoding": "inplace",
        "label": "uint256",
        "numberOfBytes": "32"
      }
    }
  }
}